:100000000C9434000C9446000C9446000C9446006A
:100010000C9446000C9446000C9446000C94460048
:100020000C9446000C9446000C9446000C94460038
:100030000C9446000C9446000C9446000C94460028
:100040000C9446000C9446000C9446000C94460018
:100050000C9446000C9446000C9446000C94460008
:100060000C9446000C94460011241FBECFEFD8E03C
:10007000DEBFCDBF21E0A0E0B1E001C01D92A830FD
:10008000B207E1F70E9448000C94C2010C940000F2
:1000900088E084B980E68AB983EA84BD81E085BDC1
:1000A00093E89093B0008093B1002FEF30E00F2ED3
:1000B000F5EEEF2EF12CF02D0F2EFEEECF2ED12CE3
:1000C000F02DCDEAD0E0A4ECB0E068E570E045E0CA
:1000D00050E0E3EBF0E08091000190910101892B69
:1000E000F9F4309307012093060110920301109256
:1000F000020110920501109204018091000190917B
:100100000101019690930101809300011FEF84E3A8
:100110009CE0115080409040E1F700C0000022C1F7
:1001200080910001909101010197F9F4109207016B
:100130001092060110920301109202013093050102
:100140002093040180910001909101010196909308
:100150000101809300011FEF84E39CE01150804077
:100160009040E1F700C00000FDC080910001909137
:1001700001010297F9F410920701109206013093E1
:100180000301209302011092050110920401809155
:10019000000190910101019690930101809300016B
:1001A0001FEF84E39CE0115080409040E1F700C0D5
:1001B0000000D8C080910001909101010397F9F4EB
:1001C000309307012093060130930301209302012D
:1001D000109205011092040180910001909101019B
:1001E000019690930101809300011FEF84E39CE04E
:1001F000115080409040E1F700C00000B3C08091F2
:100200000001909101010497F9F470930701609344
:1002100006015093030140930201109205011092D0
:1002200004018091000190910101019690930101D8
:10023000809300011FEF84E39CE0115080409040C8
:10024000E1F700C000008EC0809100019091010193
:100250000597F9F4D0930701C093060110920301AA
:1002600010920201B0930501A09304018091000156
:1002700090910101019690930101809300011FEF7D
:1002800084E39CE0115080409040E1F700C0000002
:1002900069C080910001909101010697F9F41092D4
:1002A000070110920601F0920301E0920201D09240
:1002B0000501C09204018091000190910101019615
:1002C00090930101809300011FEF84E39CE01150A3
:1002D00080409040E1F700C0000044C080910001E0
:1002E000909101010797F9F43093070120930601DB
:1002F0003093030120930201309305012093040100
:1003000080910001909101010196909301018093E9
:1003100000011FEF84E39CE0115080409040E1F722
:1003200000C000001FC0809100019091010108975A
:10033000C9F4109207011092060110920301109265
:100340000201109205011092040110920101109215
:1003500000011FEF84E39CE0115080409040E1F7E2
:1003600000C00000809106019091070187BD809137
:100370000201909103018083809104019091050115
:0803800088BDA9CEF894FFCF5F
:00000001FF
