:100000000C9434000C943E000C943E000C943E0082
:100010000C943E000C943E000C943E000C943E0068
:100020000C943E000C943E000C943E000C943E0058
:100030000C943E000C943E000C943E000C943E0048
:100040000C943E000C943E000C943E000C943E0038
:100050000C943E000C943E000C943E000C943E0028
:100060000C943E000C943E0011241FBECFEFD8E04C
:10007000DEBFCDBF0E9440000C9452000C940000E3
:100080008AB18F608AB928E094E089B18823E9F3C6
:10009000489B02C09BB9F9CF499B02C02BB9F5CF51
:0800A0001BB8F3CFF894FFCF69
:00000001FF
