:100000000C9424010C9441010C9441010C94410185
:100010000C9441010C9441010C9441010C94410158
:100020000C9441010C9441010C9441010C94410148
:100030000C9441010C9441010C9441010C94410138
:100040000C9441010C9441010C9441010C94410128
:100050000C9441010C9441010C9441010C94410118
:100060000C9441010C944101000000000000005F6D
:1000700000000007000700147F147F14242A7F2A41
:10008000122313086462364955225000050300000C
:10009000001C2241000041221C0014083E081408E4
:1000A000083E0808005030000008080808080060F2
:1000B00060000020100804023E5149453E00427F86
:1000C000400042615149462141454B311814127F8D
:1000D0001027454545393C4A494930017109050316
:1000E0003649494936064949291E0036360000007E
:1000F0005636000008142241001414141414004150
:100100002214080201510906324979413E7E11113B
:10011000117E7F494949363E414141227F4141227A
:100120001C7F494949417F090909013E4149497AF2
:100130007F0808087F00417F41002040413F017F48
:10014000081422417F404040407F020C027F7F0420
:1001500008107F3E4141413E7F090909063E415159
:10016000215E7F09192946464949493101017F012C
:10017000013F4040403F1F2040201F3F4038403F4C
:100180006314081463070870080761514945430068
:100190007F41410002040810200041417F00040219
:1001A0000102044040404040000102040020545439
:1001B00054787F48444438384444442038444448C0
:1001C0007F3854545418087E0901020C5252523E92
:1001D0007F0804047800447D40002040443D007FB7
:1001E0001028440000417F40007C041804787C08FB
:1001F00004047838444444387C1414140808141453
:10020000187C7C080404084854545420043F44409B
:10021000203C4040207C1C2040201C3C4030403C86
:1002200044281028440C5050503C4464544C440022
:100230000836410000007F00000041360800100829
:10024000081008000000000011241FBECFEFD8E006
:10025000DEBFCDBF11E0A0E0B1E0E0E7F5E002C015
:1002600005900D92AC30B107D9F723E0ACE0B1E0D6
:1002700001C01D92A630B207E1F70E949D020C94C6
:10028000B6020C9400002998662311F02B9A15C031
:100290002B9813C0AC01022E02C0559547950A94C5
:1002A000E2F740FF02C02C9A01C02C982D9A2D989D
:1002B0002150310978F7299A089527E030E090E03D
:1002C000E9CF60E00E9443010895CF93DF93219A24
:1002D000229A239A249A259A2A9A299A8FE39CE9AA
:1002E0000197F1F700C000002A989FEF2AE683E00B
:1002F000915020408040E1F700C000002A9A2998E0
:1003000081E20E94610183E10E94610186E00E9416
:10031000610182EC0E94610180E20E94610189E03A
:100320000E94610180E80E94610180E40E946101F5
:10033000C8EFD1E061E080E00E9443012197D1F74E
:1003400088E00E9461018CE00E946101DF91CF9101
:100350000895811102C084E201C080E20E9461011F
:100360000895262F26952695269590E034E5239F1F
:10037000800D911D1124442379F0FC01E45FFE4FB0
:10038000677081E090E002C0880F991F6A95E2F7DC
:100390009081892B80830895FC01E45FFE4F677094
:1003A00081E090E002C0880F991F6A95E2F780957E
:1003B00090818923808308955F926F927F928F92BC
:1003C0009F92AF92BF92CF92DF92EF92FF920F93E4
:1003D0001F93CF93DF93562E262F30E04901880CD0
:1003E000991C880C991C820E931E181419040CF089
:1003F0005DC08901000F111F000F111F000F111F99
:10040000021B130B612CA82EB12CC50180975C0137
:10041000AA0CBB1CAA0CBB1CA80EB91E0F2EF5E023
:10042000CF2EF3E0DF2EF02D0F2EF4E0EF2EF3E0D1
:10043000FF2EF02D2DC0FE01249130E0872D652D7B
:100440000E94AA0202C0359527958A95E2F720FFFF
:100450000AC0F6016081670DF701808141E0860DD9
:100460000E94B10109C0F6016081670DF70180812A
:1004700040E0860D0E94B1017394872D90E08017B3
:100480009107CCF26394862D90E08815990574F459
:1004900010161106BCF7862D652D0E94AA02E501F3
:1004A000C80FD11DC859DF4F712CC5CF80910403EF
:1004B00091E0980F852D880F880F850D890F843561
:1004C00018F4809304030EC010920403E5E0F3E0F7
:1004D000808191E0980F852D880F880F880F8519EE
:1004E000890F808380910503803320F010920403EC
:1004F00010920503DF91CF911F910F91FF90EF9024
:10050000DF90CF90BF90AF909F908F907F906F9033
:100510005F9008951F93CF93DF93EC018881882328
:1005200041F0162F2196612F0E94DC0189918111E3
:10053000FACFDF91CF911F9108950E94650181E06C
:100540000E94A90163E080E091E00E948A0280E0BD
:1005500090E00895991B79E004C0991F961708F060
:10056000961B881F7A95C9F780950895F894FFCF58
:0C05700068656C6C6F20776F726C640023
:00000001FF
