:020000020000FC
:1000000039E120E003E017E040E050E070E080E0FC
:1000100090E0F0E025B9EFE7F4E09E2E91923A955A
:100020003217D9F7EFE7F4E039E19190892C821685
:1000300019F1811618F0811A8116E8F7821651F429
:10004000490D10F00C942A005395C0E1C92B7C2E69
:10005000C4B9C5B9892C811618F0801A8016E8F742
:10006000821651F4790D10F00C943C00839598E0C1
:100070009C2B792E94B995B93A953217B1F60C9418
:0600800041000C94000099
:00000001FF
