S014000046696E616C50726F6A6563742E737265634F
S11300000C9424010C9441010C9441010C94410181
S11300100C9441010C9441010C9441010C94410154
S11300200C9441010C9441010C9441010C94410144
S11300300C9441010C9441010C9441010C94410134
S11300400C9441010C9441010C9441010C94410124
S11300500C9441010C9441010C9441010C94410114
S11300600C9441010C944101000000000000005F69
S113007000000007000700147F147F14242A7F2A3D
S11300801223130864623649552250000503000008
S1130090001C2241000041221C0014083E081408E0
S11300A0083E0808005030000008080808080060EE
S11300B060000020100804023E5149453E00427F82
S11300C0400042615149462141454B311814127F89
S11300D01027454545393C4A494930017109050312
S11300E03649494936064949291E0036360000007A
S11300F0563600000814224100141414141400414C
S11301002214080201510906324979413E7E111137
S1130110117E7F494949363E414141227F41412276
S11301201C7F494949417F090909013E4149497AEE
S11301307F0808087F00417F41002040413F017F44
S1130140081422417F404040407F020C027F7F041C
S113015008107F3E4141413E7F090909063E415155
S1130160215E7F09192946464949493101017F0128
S1130170013F4040403F1F2040201F3F4038403F48
S11301806314081463070870080761514945430064
S11301907F41410002040810200041417F00040215
S11301A00102044040404040000102040020545435
S11301B054787F48444438384444442038444448BC
S11301C07F3854545418087E0901020C5252523E8E
S11301D07F0804047800447D40002040443D007FB3
S11301E01028440000417F40007C041804787C08F7
S11301F004047838444444387C141414080814144F
S1130200187C7C080404084854545420043F444097
S1130210203C4040207C1C2040201C3C4030403C82
S113022044281028440C5050503C4464544C44001E
S11302300836410000007F00000041360800100825
S1130240081008000000000011241FBECFEFD8E002
S1130250DEBFCDBF13E0A0E0B1E0E8E1F3E102C00E
S113026005900D92AA33B107D9F725E0AAE3B3E0CC
S113027001C01D92AE33B207E1F70E94E0050C9471
S11302808A090C9400002998662311F02B9A15C052
S11302902B9813C0AC01022E02C0559547950A94C1
S11302A0E2F740FF02C02C9A01C02C982D9A2D9899
S11302B02150310978F7299A089527E030E090E039
S11302C0E9CF60E00E9443010895CF93DF93219A20
S11302D0229A239A249A259A2A9A299A8FE39CE9A6
S11302E00197F1F700C000002A989FEF2AE683E007
S11302F0915020408040E1F700C000002A9A2998DC
S113030081E20E94610183E10E94610186E00E9412
S1130310610182EC0E94610180E20E94610189E036
S11303200E94610180E80E94610180E40E946101F1
S1130330C8EFD1E061E080E00E9443012197D1F74A
S113034088E00E9461018CE00E946101DF91CF91FD
S1130350089580E80E94610180E40E946101109286
S1130360320510923305EAE3F3E082E395E011925B
S1130370E817F907E1F70895262F2695269526957F
S113038090E034E5239F800D911D1124442379F0DE
S1130390FC01E65CFC4F677081E090E002C0880FCE
S11303A0991F6A95E2F79081892B80830895FC0157
S11303B0E65CFC4F677081E090E002C0880F991FF3
S11303C06A95E2F7809590818923808308955F92EE
S11303D06F927F928F929F92AF92BF92CF92DF9251
S11303E0EF92FF920F931F93CF93DF93562E262FF6
S11303F030E04901880C991C880C991C820E931ECC
S1130400181419040CF05DC08901000F111F000FAE
S1130410111F000F111F021B130B612CA82EB12CEE
S1130420C50180975C01AA0CBB1CAA0CBB1CA80EBE
S1130430B91E0F2EF3E3CF2EF5E0DF2EF02D0F2E95
S1130440F2E3EF2EF5E0FF2EF02D2DC0FE012491F6
S113045030E0872D652D0E94490902C03595279506
S11304608A95E2F720FF0AC0F6016081670DF70163
S1130470808141E0860D0E94BC0109C0F6016081C3
S1130480670DF701808140E0860D0E94BC017394E2
S1130490872D90E080179107CCF26394862D90E02D
S11304A08815990574F410161106BCF7862D652D70
S11304B00E944909E501C80FD11DC859DF4F712CAD
S11304C0C5CF8091320591E0980F852D880F880F54
S11304D0850D890F843518F4809332050EC010926F
S11304E03205E3E3F5E0808191E0980F852D880FD4
S11304F0880F880F8519890F808380913305803395
S113050020F01092320510923305DF91CF911F91A4
S11305100F91FF90EF90DF90CF90BF90AF909F909E
S11305208F907F906F905F9008951F93CF93DF9388
S1130530EC018881882341F0162F2196612F0E94B7
S1130540E70189918111FACFDF91CF911F9108952D
S1130550809332056093330508950F931F93CF93CF
S1130560DF9380E80E94610180E40E946101CAE394
S1130570D3E002E315E061E089910E944301C017D2
S1130580D107C9F7DF91CF911F910F9108953C9A3C
S113059098E080FF02C0449A01C04498459800C086
S11305A0459A00C086959150A1F70895CF93C62F20
S11305B043984598439A0E94C7028C2F0E94C70211
S11305C043984598CF9108953C9898E080E0459AE7
S11305D000C0459800C08695349980689150B9F759
S11305E0089543984598439A0E94C7020E94E402E2
S11305F043984598089587B1886387B988B1877C03
S113060088B984E395E090933D0580933C05089573
S11306100F931F93CF938C01C62F862F8F7709F4E6
S11306209FC043984598439A8EEB0E94C702F801F5
S11306302081CDEC2C9F912D11249695969596951D
S1130640F0E19F9FA0011124842F8077990F392F07
S1130650330F330F930F291B822B0E94C702F8011B
S113066022812C9F912D1124969596959695F0E1D3
S11306709F9FA0011124842F8077990F392F330F66
S1130680330F930F291B822B0E94C702F801978115
S11306908181982B9C9F212D1124269526952695A2
S11306A0F0E12F9FA00111244071892F807A220F3D
S11306B0322F330F330F230F921B892B842B0E946D
S11306C0C702F80124812C9F912D112496959695AB
S11306D09695F0E19F9FA0011124842F8073990FB8
S11306E0392F330F330F930F291B822B0E94C7021C
S11306F0F80125812C9F912D112496959695969518
S1130700F0E19F9FA0011124842F8071990F392F4C
S1130710330F330F930F291B822B0E94C702F8015A
S1130720838183700E94C702F80196819C9FC12D2A
S11307301124C695C695C695F0E1CF9FA00111245A
S1130740CC0F2C2F220F220FC20F892F8C1B842B2E
S11307500E94C70280E00E94C70243984598A8C03F
S113076060FF18C0F80190818DEC989F812D1124B1
S1130770869586958695F0E18F9FB0011124607768
S1130780880F282F220F220F820F981B692B80E8D5
S11307900E94D602C1FF18C0F80192818DEC989F87
S11307A0812D1124869586958695F0E18F9FB00161
S11307B011246077880F282F220F220F820F981B95
S11307C0692B82E80E94D602C2FF1DC0F80167812E
S11307D08181862B9DEC899F912D11249695969568
S11307E09695F0E19F9FB00111246071382F307A03
S11307F0990F292F220F220F920F891B832B682B0D
S113080084E80E94D602C3FF18C0F80194818DECDD
S1130810989F812D1124869586958695F0E18F9F6A
S1130820B00111246073880F282F220F220F820F2A
S1130830981B692B86E80E94D602C4FF18C0F801F1
S113084095818DEC989F812D1124869586958695AA
S1130850F0E18F9FB00111246071880F282F220FBF
S1130860220F820F981B692B88E80E94D602C5FFCD
S113087006C0F801638163708AE80E94D602C6FF4D
S113088017C0F80196818DEC989F812D11248695CF
S113089086958695F0E18F9FB0011124880F282F4B
S11308A0220F220F820F981B692B8CE80E94D6021C
S11308B0CF911F910F9108956FE70E940803089547
S11308C00F931F93CF938C01C62F862F8F7709F434
S11308D06CC043984598439A8FEB0E94C7020E94CC
S11308E0E402982F9077969596959695292F220F46
S11308F0220F920F8F70890FF80180830E94E40207
S1130900982F9077969596959695292F220F220FDA
S1130910920F8F70890FF80182830E94E40284FB96
S1130920992790F9990F292F220F220F920F282F20
S11309302F70920F807A892B982F907AF8019783E1
S11309408F7581830E94E402982F907396959695F3
S11309509695292F220F220F920F8F70890FF8017D
S113096084830E94E40284FB992790F9990F292F2C
S1130970220F220F920F8F70890FF80185830E9436
S1130980E4028770F80183830E94E402982F929511
S11309909F70990F292F220F220F920F8F70890FAA
S11309A0F80186834398459878C060FF10C081E8B9
S11309B00E94F102982F9077969596959695292FF7
S11309C0220F220F920F8F70890FF8018083C1FFCD
S11309D010C083E80E94F102982F9077969596951F
S11309E09695292F220F220F920F8F70890FF801ED
S11309F08283C2FF16C085E80E94F10284FB992716
S1130A0090F9990F292F220F220F920F282F2F7060
S1130A10920F807A892B982F907AF80197838F759B
S1130A208183C3FF10C087E80E94F102982F90735E
S1130A30969596959695292F220F220F920F8F70D7
S1130A40890FF8018483C4FF0FC089E80E94F10272
S1130A5084FB992790F9990F292F220F220F920FC7
S1130A608F70890FF8018583C5FF06C08BE80E944B
S1130A70F1028770F8018383C6FF0FC08DE80E94DE
S1130A80F102982F92959F70990F292F220F220F10
S1130A90920F8F70890FF8018683CF911F910F9168
S1130AA008956FE70E9460040895CF92DF92EF9259
S1130AB0FF920F931F93CF93DF936C0100E055C017
S1130AC0E701888188232CF441E0602F812F0E9464
S1130AD0BC01888186FF06C041E0602F81E0810F60
S1130AE00E94BC01888185FF06C041E0602F82E03E
S1130AF0810F0E94BC01888184FF06C041E0602F01
S1130B0083E0810F0E94BC01888183FF06C041E01D
S1130B10602F84E0810F0E94BC01888182FF06C09F
S1130B2041E0602F85E0810F0E94BC01888181FF34
S1130B3006C041E0602F86E0810F0E94BC018881DD
S1130B4080FF06C041E0602F87E0810F0E94BC0156
S1130B508FEFE81AF80A185F103509F0B1CF0F5F6C
S1130B60EAE0CE0ED11C003319F0760110E0A8CFD4
S1130B70DF91CF911F910F91FF90EF90DF90CF9075
S1130B80089527E030E080E090E061E070E0309B81
S1130B90FECF40E54A95F1F7309B09C0AB01022E28
S1130BA002C0440F551F0A94E2F7842B952B309909
S1130BB0FECF2150310958F70895389A409A089584
S1130BC0CF93DF93CDB7DEB764970FB6F894DEBF4B
S1130BD00FBECDBF0E9465010E94A9018AB183683E
S1130BE08AB9FE0131968AE0DF011D928A95E9F700
S1130BF00E94DD050E94FB02E0913C05F0913D0559
S1130C00178280913C0590913D050E945C040E94EE
S1130C10A90164E18AE00E94A80261E080E091E019
S1130C200E9495026CE181E10E94A80261E08DE0DE
S1130C3091E00E9495020E94AD020E94A901BFEFBB
S1130C40E3EDF0E3B150E040F040E1F700C0000014
S1130C5010E000E0F12C04C022E0F21609F48BC08D
S1130C60F11012C060E08CE00E94A80262E087E10B
S1130C7091E00E94950260E084E10E94A80262E093
S1130C808CE50E94E70114C081E0F81211C060E015
S1130C908AE30E94A80262E087E191E00E94950243
S1130CA060E082E40E94A80262E08CE50E94E70111
S1130CB060E185E00E94A8021A3028F463E089E12B
S1130CC091E00E9495024AE0BE016F5F7F4F812F41
S1130CD090E00E94550963E00E94950263E08BE175
S1130CE091E00E9495020A3028F463E089E191E0E2
S1130CF00E9495024AE0BE016F5F7F4F802F90E013
S1130D000E94550963E00E9495020E94AD02489B2F
S1130D100DC0F1100BC01F5F9FEFA1EEB4E0915026
S1130D20A040B040E1F700C000000FC0489B0DC0D8
S1130D30E1E0FE120AC00F5FFFEF21EE84E0F15004
S1130D4020408040E1F700C00000499B0AC0F394B2
S1130D509FEFA1EEB4E09150A040B040E1F700C095
S1130D6000000E94A9010C3308F000E0183108F4D7
S1130D7073CF10E071CFE0913C05F0913D051082F6
S1130D80E0913C05F0913D050283E0913C05F09132
S1130D903D051183E0913C05F0913D0581E084839C
S1130DA0E0913C05F0913D058583E0913C05F0918F
S1130DB03D0581EE868380913C0590913D050E941E
S1130DC05C040F2EFDE3EF2EF02D0F2EF9E1FF2E24
S1130DD0F02DB12C6E01E5E1CE0ED11C82E491E040
S1130DE00E94550580913C0590913D050E94510556
S1130DF066E086E00E94A802E0913C05F0913D0582
S1130E0081818A3028F461E089E191E00E949502B1
S1130E10E0913C05F0913D0581814AE0BE016F5FA0
S1130E207F4F90E00E94550961E00E94950261E0C5
S1130E308BE191E00E949502E0913C05F0913D0523
S1130E4082818A3028F461E089E191E00E94950270
S1130E50E0913C05F0913D0582814AE0BE016F5F5F
S1130E607F4F90E00E94550961E00E94950261E085
S1130E708BE191E00E949502E0913C05F0913D05E3
S1130E8080818A3028F461E089E191E00E94950232
S1130E90E0913C05F0913D0580814AE0BE016F5F21
S1130EA07F4F90E00E94550961E00E9495024098AE
S1130EB08FE99CE80197F1F700C00000409A92E0A6
S1130EC09A95F1F700C03898AAE6AA95F1F700C000
S1130ED086B1B5EDBA95F1F7000086B1E5EDEA9576
S1130EE0F1F700008E01055F1F4F0E94C105D80174
S1130EF08D939D938D01CA16DB06B9F7389A409AF3
S1130F00489B37C00B851C858F8498880E94A90153
S1130F1082E491E00E94550566E089E00E94A802FF
S1130F204AE0BE016F5F7F4FC4010E94550961E032
S1130F300E94950261E08DE191E00E9495024AE0F1
S1130F40BE016F5F7F4FC8010E94550961E00E9496
S1130F50950261E080E291E00E9495020E94AD0258
S1130F60BFEFE2E5F7E0B150E040F040E1F700C048
S1130F700000499BD2C0B3942EE02B1508F0CEC0DC
S1130F800E94A90164E18AE00E94A80261E080E075
S1130F9091E00E9495026CE184E00E94A80261E065
S1130FA082E291E00E9495020E94AD020E94A90192
S1130FB08FEF93EDA0E381509040A040E1F700C093
S1130FC00000E12CF12C10E003C0123009F48DC0B4
S1130FD0111112C060E08CE00E94A80262E087E177
S1130FE091E00E94950260E084E10E94A80262E020
S1130FF08CE50E94E70113C0113089F460E08AE3B4
S11310000E94A80262E087E191E00E94950260E0FC
S113101082E40E94A80262E08CE50E94E70160E19C
S113102085E00E94A802B9E0BF1528F063E089E1D9
S113103091E00E9495024AE0BE016F5F7F4F8F2DC1
S113104090E00E94550963E00E94950263E08BE101
S113105091E00E949502E9E0EE1528F063E089E151
S113106091E00E9495024AE0BE016F5F7F4F8E2D92
S113107090E00E94550963E00E9495020E94AD022F
S1131080489B0DC011110BC0F394FFEF21EE84E0D7
S1131090F15020408040E1F700C000000EC0489BA2
S11310A00CC0113051F4E3949FEFA1EEB4E09150E1
S11310B0A040B040E1F700C00000499B0AC01F5F98
S11310C0EFEFF1EE24E0E150F0402040E1F700C002
S11310D000000E94A9018BE38E1508F4E12C97E12E
S11310E09F1508F072CFF12C70CF0E94A90164E122
S11310F08AE00E94A80261E08EE291E00E949502DB
S11311000E94AD02AFEFB3EDE0E3A150B040E04088
S1131110E1F700C00000B12C01C0B12CE0913C0506
S1131120F0913D058181F812A6C0E0913C05F09153
S11311303D058281E8129FC01BB1FFEF29E688E1DB
S1131140F15020408040E1F700C000008BB180588E
S11311508BB99FEFA0E7B2E09150A040B040E1F717
S113116000C000000E94A90164E18AE00E94A80274
S113117061E088E391E00E9495020E94AD028BB188
S113118080588BB9EFEFF0E722E0E150F0402040C7
S1131190E1F700C00000489B0BC08FEF90E7A2E08E
S11311A081509040A040E1F700C000001BB952C03C
S11311B0499B0BC0BFEFE0E7F2E0B150E040F040E4
S11311C0E1F700C000001BB945C02FEF80E792E0B3
S11311D0215080409040E1F700C00000489B0BC0C4
S11311E0AFEFB0E7E2E0A150B040E040E1F700C06B
S11311F000001BB92FC0499B0BC0FFEF20E782E022
S1131200F15020408040E1F700C000001BB922C02B
S11312109FEFA0E7B2E09150A040B040E1F700C0DA
S11312200000489B0BC0EFEFF0E722E0E150F040F4
S11312302040E1F700C000001BB90CC0499B9FCFC0
S11312408FEF90E7A2E081509040A040E1F700C00A
S113125000001BB9BFEFE0E7F2E0B150E040F0401E
S1131260E1F700C000000F2EFDE3EF2EF02D0F2E4E
S1131270F9E1FF2EF02D0E94AD020E94A9012FEF8B
S113128080E792E0215080409040E1F700C00000E8
S1131290A5CD991B79E004C0991F961708F0961BF9
S11312A0881F7A95C9F780950895BB274A3031F491
S11312B0992322F4BDE2909581959F4F0C94610986
S11312C0BB27FB015527AA27880F991FAA1FA4171C
S11312D010F0A41B83955051B9F7A05DAA3308F010
S11312E0A95DA193009779F7B111B1931192CB0144
S11312F00C947A09DC01FC01672F71917723E1F7E3
S1131300329704C07C916D9370836291AE17BF07CE
S10B1310C8F30895F894FFCF1F
S1131318506C6561736520456E7465720054686528
S11313282054696D652E002F0030003A00432000D8
S11313382500416C61726D2054696D652E00416C05
S113134861726D20536574004954532054494D45C6
S1131358210000000000000000030C6300000000EE
S11313680000000180021EF7BF7EFBEFBF0000E013
S113137800000000000000100F9C10000000000096
S1131388011E1806100000000000010230031000BE
S1131398000000000100200110000000000000000F
S11313A820010000000000000100200110000000DE
S11313B8000001006001100000000000010E60013F
S11313C810000000000001183001100000000000A7
S11313D80000180200000000000001000C061000C4
S11313E8000000000100061C1000000000000100BD
S11313F861F01000000000000100C00017BDEF7D7F
S1131408F7DF7D01800000000000000000000400F8
S1131418000000000000000004300000000000008C
S1131428000004100000C000004000000010001F6D
S1131438F00000E00000000000221E0000B00000E0
S1131448000003E01200011800000000064002003A
S1131458030C0007F8000C0006000E060004CC007C
S113146808000C001803001C07800E00040030015B
S1131478C06404C003871800E0787C40004000FD85
S1131488F01F80CC064800C00000001C41041879F5
S11314988F8000000000418C1007980000000000B5
S11314A860F81000E00000000000200020000000A8
S11314B80000000020FC2000000000000000208440
S11314C8200000000000000020842000000000002C
S11314D80000219460000000000000002114400076
S11314E8000000000000211C400000000000000073
S11314F821844000000000000FFFFE7FFF00000071
S11315080003F80003C001FFF800FFFC000000001E
S113151800000FF88000000000000000000F000029
S113152800000000000000000000000000000000AF
S113153800000F0000000000000000000000000090
S10D15480000000000000000000095
S9030000FC
