S014000046696E616C50726F6A6563742E737265634F
S11300000C9424010C9441010C9441010C94410181
S11300100C9441010C9441010C9441010C94410154
S11300200C9441010C9441010C9441010C94410144
S11300300C9441010C9441010C9441010C94410134
S11300400C9441010C9441010C9441010C94410124
S11300500C9441010C9441010C9441010C94410114
S11300600C9441010C944101000000000000005F69
S113007000000007000700147F147F14242A7F2A3D
S11300801223130864623649552250000503000008
S1130090001C2241000041221C0014083E081408E0
S11300A0083E0808005030000008080808080060EE
S11300B060000020100804023E5149453E00427F82
S11300C0400042615149462141454B311814127F89
S11300D01027454545393C4A494930017109050312
S11300E03649494936064949291E0036360000007A
S11300F0563600000814224100141414141400414C
S11301002214080201510906324979413E7E111137
S1130110117E7F494949363E414141227F41412276
S11301201C7F494949417F090909013E4149497AEE
S11301307F0808087F00417F41002040413F017F44
S1130140081422417F404040407F020C027F7F041C
S113015008107F3E4141413E7F090909063E415155
S1130160215E7F09192946464949493101017F0128
S1130170013F4040403F1F2040201F3F4038403F48
S11301806314081463070870080761514945430064
S11301907F41410002040810200041417F00040215
S11301A00102044040404040000102040020545435
S11301B054787F48444438384444442038444448BC
S11301C07F3854545418087E0901020C5252523E8E
S11301D07F0804047800447D40002040443D007FB3
S11301E01028440000417F40007C041804787C08F7
S11301F004047838444444387C141414080814144F
S1130200187C7C080404084854545420043F444097
S1130210203C4040207C1C2040201C3C4030403C82
S113022044281028440C5050503C4464544C44001E
S11302300836410000007F00000041360800100825
S1130240081008000000000011241FBECFEFD8E002
S1130250DEBFCDBF11E0A0E0B1E0EEECFAE002C0F9
S113026005900D92A030B107D9F722E0A0E0B1E0EB
S113027001C01D92AE3FB207E1F70E94B1030C9496
S113028065050C940000CF92DF92EF92FF920F93DA
S11302901F93CF93DF9300D000D01F92CDB7DEB76A
S11302A06C01DE01119695E0FD0111929A95E9F732
S11302B0569A5E9AFFEF20E782E0F150204080409A
S11302C0E1F700C000005E98A7EEB3E01197F1F7E4
S11302D000C0000056985E9ABAE6BA95F1F700C0DD
S11302E04E998DC0E5EDEA95F1F700004E9B89C06B
S11302F0F5EDFA95F1F700008E010F5F1F4F7E01B7
S113030026E0E20EF11CE1E0F0E027C021503109C3
S113031019F479C029EC30E04E9BF8CF80E58A953A
S1130320F1F74E9B08C09F01042E02C0220F331F19
S11303300A94E2F7922B29EC30E004C021503109F1
S113034009F463C04E99FACF4150510918F7D80106
S11303509D938D01EA16FB0621F047E050E090E002
S1130360D9CF569A5E9ABFEFE0E7F2E0B150E04091
S1130370F040E1F700C000003981EA802B818C81D4
S1130380932F9E0D920F980F4D81941340C08B01B3
S1130390F12CF32A682F70E0722B77238CF47F778B
S11303A080E090E00E94960420E030E040E251E4D6
S11303B00E94EE0390580E946004D6016C930EC014
S11303C080E090E00E94960420E030E040E251E4B6
S11303D00E94EE030E946004F6016083B70180E08E
S11303E090E00E94960420E030E040E251E40E9454
S11303F0EE030E946004D8016C9380E009C08FEF83
S113040007C08FEF05C08FEF03C08FEF01C08FEFE0
S11304100F900F900F900F900F90DF91CF911F913D
S11304200F91FF90EF90DF90CF9008950E944301C9
S113043008952998662311F02B9A15C02B9813C0A0
S1130440AC01022E02C0559547950A94E2F740FF8D
S113045002C02C9A01C02C982D9A2D982150310954
S113046078F7299A089527E030E090E0E9CF60E03A
S11304700E9419020895CF93DF93219A229A239A16
S1130480249A259A2A9A299A8FE39CE90197F1F7ED
S113049000C000002A989FEF2AE683E09150204094
S11304A08040E1F700C000002A9A299881E20E9466
S11304B0370283E10E94370286E00E94370282EC11
S11304C00E94370280E20E94370289E00E943702CC
S11304D080E80E94370280E40E943702C8EFD1E02E
S11304E061E080E00E9419022197D1F788E00E9420
S11304F037028CE00E943702DF91CF91089580E8A3
S11305000E94370280E40E9437021092F80210928F
S1130510F902E0E0F1E088EF92E01192E817F907C0
S1130520E1F70895262F26952695269590E034E543
S1130530239F800D911D1124442379F0FC01E05088
S1130540FF4F677081E090E002C0880F991F6A95A1
S1130550E2F79081892B80830895FC01E050FF4FDE
S1130560677081E090E002C0880F991F6A95E2F7F6
S1130570809590818923808308955F926F927F9202
S11305808F929F92AF92BF92CF92DF92EF92FF929F
S11305900F931F93CF93DF93562E262F30E04901FC
S11305A0880C991C880C991C820E931E181419042B
S11305B00CF05DC08901000F111F000F111F000F07
S11305C0111F021B130B612CA82EB12CC50180979F
S11305D05C01AA0CBB1CAA0CBB1CA80EB91E0F2ED6
S11305E0F9EFCF2EF2E0DF2EF02D0F2EF8EFEF2EE5
S11305F0F2E0FF2EF02D2DC0FE01249130E0872D76
S1130600652D0E94240502C0359527958A95E2F749
S113061020FF0AC0F6016081670DF701808141E087
S1130620860D0E94920209C0F6016081670DF701F0
S1130630808140E0860D0E9492027394872D90E0A1
S113064080179107CCF26394862D90E08815990564
S113065074F410161106BCF7862D652D0E9424052E
S1130660E501C80FD11DC859DF4F712CC5CF80914A
S1130670F80291E0980F852D880F880F850D890F5A
S1130680843518F48093F8020EC01092F802E9EF52
S1130690F2E0808191E0980F852D880F880F880FF4
S11306A08519890F80838091F902803320F010929C
S11306B0F8021092F902DF91CF911F910F91FF90F0
S11306C0EF90DF90CF90BF90AF909F908F907F90EE
S11306D06F905F9008951F93CF93DF93EC0188810F
S11306E0882341F0162F2196612F0E94BD02899123
S11306F08111FACFDF91CF911F9108950F931F932A
S1130700CF93DF9380E80E94370280E40E9437028F
S1130710C0E0D1E008EF12E061E089910E94190283
S1130720C017D107C9F7DF91CF911F910F91089599
S11307301092FD021092FC021092FB021092FA0237
S1130740992324F422E02093C0009F779093C5005E
S11307508093C40088E98093C10086E08093C2003E
S11307600895CF93DF93CDB7DEB7C656D1090FB640
S1130770F894DEBF0FBECDBF0E943B020E947F02F1
S113078083E390E00E9498037894A6961FAEA69700
S1130790A7961FAEA797BE016A597F4FCE018B590A
S11307A09F4F0E941602A6968FADA6974AE0BE01FF
S11307B06F5F7F4F082E000C990B0E94300561E09B
S11307C00E946B030E947E032FEF8EE994E2215076
S11307D080409040E1F700C00000DDCF0E94020499
S11307E00C94EA040E94E30458F00E94DC0440F0F4
S11307F029F45F3F29F00C94D30451110C941E0585
S11308000C94D9040E94FB0468F39923B1F3552393
S113081091F3951B550BBB27AA276217730784070F
S113082038F09F5F5F4F220F331F441FAA1FA9F3A5
S113083035D00E2E3AF0E0E832D091505040E69593
S1130840001CCAF72BD0FE2F29D0660F771F881FF4
S1130850BB1F261737074807AB07B0E809F0BB0BE7
S1130860802DBF01FF2793585F4F3AF09E3F5105FB
S113087078F00C94D3040C941E055F3FE4F3983E87
S1130880D4F3869577956795B795F7959F5FC9F7E4
S1130890880F911D9695879597F90895E1E0660F65
S11308A0771F881FBB1F621773078407BA0720F0DE
S11308B0621B730B840BBA0BEE1F88F7E095089547
S11308C00E9467046894B1110C941E0508950E9457
S11308D0030588F09F5798F0B92F9927B751B0F0C6
S11308E0E1F0660F771F881F991F1AF0BA95C9F7B0
S11308F014C0B13091F00E941D05B1E008950C942C
S11309001D05672F782F8827B85F39F0B93FCCF3DE
S1130910869577956795B395D9F73EF4909580952C
S1130920709561957F4F8F4F9F4F0895E89409C04C
S113093097FB3EF490958095709561957F4F8F4F0E
S11309409F4F9923A9F0F92F96E9BB279395F69524
S1130950879577956795B795F111F8CFFAF4BB0FA2
S113096011F460FF1BC06F5F7F4F8F4F9F4F16C006
S1130970882311F096E911C0772321F09EE8872F90
S1130980762F05C0662371F096E8862F70E060E04C
S11309902AF09A95660F771F881FDAF7880F9695C5
S11309A0879597F9089597F99F6780E870E060E06C
S11309B008959FEF80EC089500240A9416161706F4
S11309C018060906089500240A941216130614063C
S11309D005060895092E0394000C11F4882352F09F
S11309E0BB0F40F4BF2B11F460FF04C06F5F7F4F57
S11309F08F4F9F4F089557FD9058440F551F59F03E
S1130A005F3F71F04795880F97FB991F61F09F3FF7
S1130A1079F087950895121613061406551FF2CF20
S1130A204695F1DF08C0161617061806991FF1CF70
S1130A3086957105610508940895E894BB27662797
S1130A407727CB0197F90895991B79E004C0991F82
S1130A50961708F0961B881F7A95C9F78095089514
S1130A60BB274A3031F4992322F4BDE29095819555
S1130A709F4F0C943C05BB27FB015527AA27880FE1
S1130A80991FAA1FA41710F0A41B83955051B9F7FE
S1130A90A05DAA3308F0A95DA193009779F7B1117D
S1130AA0B1931192CB010C945505DC01FC01672F25
S1130AB071917723E1F7329704C07C916D93708331
S1110AC06291AE17BF07C8F30895F894FFCFF4
S9030000FC
