:100000000C9424010C9441010C9441010C94410185
:100010000C9441010C9441010C9441010C94410158
:100020000C9441010C9441010C9441010C94410148
:100030000C9441010C9441010C9441010C94410138
:100040000C9441010C9441010C9441010C94410128
:100050000C9441010C9441010C9441010C94410118
:100060000C9441010C944101000000000000005F6D
:1000700000000007000700147F147F14242A7F2A41
:10008000122313086462364955225000050300000C
:10009000001C2241000041221C0014083E081408E4
:1000A000083E0808005030000008080808080060F2
:1000B00060000020100804023E5149453E00427F86
:1000C000400042615149462141454B311814127F8D
:1000D0001027454545393C4A494930017109050316
:1000E0003649494936064949291E0036360000007E
:1000F0005636000008142241001414141414004150
:100100002214080201510906324979413E7E11113B
:10011000117E7F494949363E414141227F4141227A
:100120001C7F494949417F090909013E4149497AF2
:100130007F0808087F00417F41002040413F017F48
:10014000081422417F404040407F020C027F7F0420
:1001500008107F3E4141413E7F090909063E415159
:10016000215E7F09192946464949493101017F012C
:10017000013F4040403F1F2040201F3F4038403F4C
:100180006314081463070870080761514945430068
:100190007F41410002040810200041417F00040219
:1001A0000102044040404040000102040020545439
:1001B00054787F48444438384444442038444448C0
:1001C0007F3854545418087E0901020C5252523E92
:1001D0007F0804047800447D40002040443D007FB7
:1001E0001028440000417F40007C041804787C08FB
:1001F00004047838444444387C1414140808141453
:10020000187C7C080404084854545420043F44409B
:10021000203C4040207C1C2040201C3C4030403C86
:1002200044281028440C5050503C4464544C440022
:100230000836410000007F00000041360800100829
:10024000081008000000000011241FBECFEFD8E006
:10025000DEBFCDBF12E0A0E0B1E0E4EDFEE002C001
:1002600005900D92AC3FB107D9F725E0ACEFB2E0B5
:1002700001C01D92A030B207E1F70E9482060C94E3
:1002800068070C9400002998662311F02B9A15C07A
:100290002B9813C0AC01022E02C0559547950A94C5
:1002A000E2F740FF02C02C9A01C02C982D9A2D989D
:1002B0002150310978F7299A089527E030E090E03D
:1002C000E9CF60E00E9443010895CF93DF93219A24
:1002D000229A239A249A259A2A9A299A8FE39CE9AA
:1002E0000197F1F700C000002A989FEF2AE683E00B
:1002F000915020408040E1F700C000002A9A2998E0
:1003000081E20E94610183E10E94610186E00E9416
:10031000610182EC0E94610180E20E94610189E03A
:100320000E94610180E80E94610180E40E946101F5
:10033000C8EFD1E061E080E00E9443012197D1F74E
:1003400088E00E9461018CE00E946101DF91CF9101
:10035000089580E80E94610180E40E94610110928A
:10036000F4041092F504ECEFF2E084EF94E01192C3
:10037000E817F907E1F70895262F26952695269583
:1003800090E034E5239F800D911D1124442379F0E2
:10039000FC01E450FD4F677081E090E002C0880FDF
:1003A000991F6A95E2F79081892B80830895FC015B
:1003B000E450FD4F677081E090E002C0880F991F04
:1003C0006A95E2F7809590818923808308955F92F2
:1003D0006F927F928F929F92AF92BF92CF92DF9255
:1003E000EF92FF920F931F93CF93DF93562E262FFA
:1003F00030E04901880C991C880C991C820E931ED0
:10040000181419040CF05DC08901000F111F000FB2
:10041000111F000F111F021B130B612CA82EB12CF2
:10042000C50180975C01AA0CBB1CAA0CBB1CA80EC2
:10043000B91E0F2EF5EFCF2EF4E0DF2EF02D0F2E8C
:10044000F4EFEF2EF4E0FF2EF02D2DC0FE012491ED
:1004500030E0872D652D0E94270702C0359527952E
:100460008A95E2F720FF0AC0F6016081670DF70167
:10047000808141E0860D0E94BC0109C0F6016081C7
:10048000670DF701808140E0860D0E94BC017394E6
:10049000872D90E080179107CCF26394862D90E031
:1004A0008815990574F410161106BCF7862D652D74
:1004B0000E942707E501C80FD11DC859DF4F712CD5
:1004C000C5CF8091F40491E0980F852D880F880F97
:1004D000850D890F843518F48093F4040EC01092B2
:1004E000F404E5EFF4E0808191E0980F852D880F0A
:1004F000880F880F8519890F80838091F5048033D8
:1005000020F01092F4041092F504DF91CF911F9126
:100510000F91FF90EF90DF90CF90BF90AF909F90A2
:100520008F907F906F905F9008951F93CF93DF938C
:10053000EC018881882341F0162F2196612F0E94BB
:10054000E70189918111FACFDF91CF911F91089531
:100550008093F4046093F50408950F931F93CF9351
:10056000DF9380E80E94610180E40E946101CCEF8A
:10057000D2E004EF14E061E089910E944301C017CA
:10058000D107C9F7DF91CF911F910F9108953C9A40
:1005900098E080FF02C0449A01C04498459800C08A
:1005A000459A00C086959150A1F70895CF93C62F24
:1005B00043984598439A0E94C7028C2F0E94C70215
:1005C00043984598CF9108953C9898E080E0459AEB
:1005D00000C0459800C08695349980689150B9F75D
:1005E000089543984598439A0E94C7020E94E402E6
:1005F00043984598089587B1886387B988B1877C07
:1006000088B986EF94E09093FF048093FE040895E8
:100610000F931F93CF938C01C62F862F8F7709F4EA
:100620009FC043984598439A8EEB0E94C702F801F9
:100630002081CDEC2C9F912D112496959695969521
:10064000F0E19F9FA0011124842F8077990F392F0B
:10065000330F330F930F291B822B0E94C702F8011F
:1006600022812C9F912D1124969596959695F0E1D7
:100670009F9FA0011124842F8077990F392F330F6A
:10068000330F930F291B822B0E94C702F801978119
:100690008181982B9C9F212D1124269526952695A6
:1006A000F0E12F9FA00111244071892F807A220F41
:1006B000322F330F330F230F921B892B842B0E9471
:1006C000C702F80124812C9F912D112496959695AF
:1006D0009695F0E19F9FA0011124842F8073990FBC
:1006E000392F330F330F930F291B822B0E94C70220
:1006F000F80125812C9F912D11249695969596951C
:10070000F0E19F9FA0011124842F8071990F392F50
:10071000330F330F930F291B822B0E94C702F8015E
:10072000838183700E94C702F80196819C9FC12D2E
:100730001124C695C695C695F0E1CF9FA00111245E
:10074000CC0F2C2F220F220FC20F892F8C1B842B32
:100750000E94C70280E00E94C70243984598A8C043
:1007600060FF18C0F80190818DEC989F812D1124B5
:10077000869586958695F0E18F9FB001112460776C
:10078000880F282F220F220F820F981B692B80E8D9
:100790000E94D602C1FF18C0F80192818DEC989F8B
:1007A000812D1124869586958695F0E18F9FB00165
:1007B00011246077880F282F220F220F820F981B99
:1007C000692B82E80E94D602C2FF1DC0F801678132
:1007D0008181862B9DEC899F912D1124969596956C
:1007E0009695F0E19F9FB00111246071382F307A07
:1007F000990F292F220F220F920F891B832B682B11
:1008000084E80E94D602C3FF18C0F80194818DECE1
:10081000989F812D1124869586958695F0E18F9F6E
:10082000B00111246073880F282F220F220F820F2E
:10083000981B692B86E80E94D602C4FF18C0F801F5
:1008400095818DEC989F812D1124869586958695AE
:10085000F0E18F9FB00111246071880F282F220FC3
:10086000220F820F981B692B88E80E94D602C5FFD1
:1008700006C0F801638163708AE80E94D602C6FF51
:1008800017C0F80196818DEC989F812D11248695D3
:1008900086958695F0E18F9FB0011124880F282F4F
:1008A000220F220F820F981B692B8CE80E94D60220
:1008B000CF911F910F9108956FE70E94080308954B
:1008C0000F931F93CF938C01C62F862F8F7709F438
:1008D0006CC043984598439A8FEB0E94C7020E94D0
:1008E000E402982F9077969596959695292F220F4A
:1008F000220F920F8F70890FF80180830E94E4020B
:10090000982F9077969596959695292F220F220FDE
:10091000920F8F70890FF80182830E94E40284FB9A
:10092000992790F9990F292F220F220F920F282F24
:100930002F70920F807A892B982F907AF8019783E5
:100940008F7581830E94E402982F907396959695F7
:100950009695292F220F220F920F8F70890FF80181
:1009600084830E94E40284FB992790F9990F292F30
:10097000220F220F920F8F70890FF80185830E943A
:10098000E4028770F80183830E94E402982F929515
:100990009F70990F292F220F220F920F8F70890FAE
:1009A000F80186834398459878C060FF10C081E8BD
:1009B0000E94F102982F9077969596959695292FFB
:1009C000220F220F920F8F70890FF8018083C1FFD1
:1009D00010C083E80E94F102982F90779695969523
:1009E0009695292F220F220F920F8F70890FF801F1
:1009F0008283C2FF16C085E80E94F10284FB99271A
:100A000090F9990F292F220F220F920F282F2F7064
:100A1000920F807A892B982F907AF80197838F759F
:100A20008183C3FF10C087E80E94F102982F907362
:100A3000969596959695292F220F220F920F8F70DB
:100A4000890FF8018483C4FF0FC089E80E94F10276
:100A500084FB992790F9990F292F220F220F920FCB
:100A60008F70890FF8018583C5FF06C08BE80E944F
:100A7000F1028770F8018383C6FF0FC08DE80E94E2
:100A8000F102982F92959F70990F292F220F220F14
:100A9000920F8F70890FF8018683CF911F910F916C
:100AA00008956FE70E94600408952F923F924F923D
:100AB0005F926F927F928F929F92AF92BF92CF92EE
:100AC000DF92EF92FF920F931F93CF93DF93CDB7F7
:100AD000DEB760970FB6F894DEBF0FBECDBF312CE6
:100AE00021E030E03B872A87412C512C188A20E0F6
:100AF0009F878E87D32CB4C01D870C87F801808117
:100B0000882334F441E06D2D89818C0D0E94BC0155
:100B1000EC85FD85808186FF06C041E06D2D8981D1
:100B2000880D0E94BC01EC85FD85808185FF06C093
:100B300041E06D2D8981860D0E94BC01EC85FD850B
:100B4000808184FF09C041E06D2D8981820D0E9462
:100B5000BC01C701049602C0C70104968435910503
:100B600009F4ACC0EC85FD85808183FF07C041E0BE
:100B70006D2D8981FC818F0F0E94BC01EC85FD8564
:100B8000808182FF07C041E06D2D8981FE818F0F3A
:100B90000E94BC01EC85FD85808181FF07C041E09A
:100BA0006D2D8981F8858F0F0E94BC01EC85FD8534
:100BB000808180FF09C041E06D2D8981FA818F0F0E
:100BC0000E94BC01C50101C0C5018435910509F42D
:100BD00075C02FEF421A520A0F5F1F4F38E0A30E65
:100BE000B11CE8E0EE0EF11CF981F85FF983803565
:100BF00091050CF481CF188A20E029C041E06A8574
:100C000080E00E94BC01EA81FB81808182FF05C0F7
:100C100041E06A8581E00E94BC01EA81FB8180811C
:100C200081FF05C041E06A8582E00E94BC01EA8143
:100C3000FB81808180FF05C041E06A8583E00E94DE
:100C4000BC01FFEF4F1A5F0A24E0288B20E08A8561
:100C50009B8501969B878A87D39490E3D916C9F127
:100C60000E851F85040D151D8889922F5C01E8E013
:100C7000AE0EB11C9C01295F3F4F3B832A837C0150
:100C8000912CFC013196FD87EC873C01F2E06F0E60
:100C9000711C1C0123E0220E311CFC013496FD83E3
:100CA000EC839C012B5F3F4F3F832E833296F98765
:100CB000E8879982C82E8C849D841ECF2E853F851F
:100CC000240D351D3B832A83F901808183FF9BCF4F
:100CD00095CF60960FB6F894DEBF0FBECDBFDF9103
:100CE000CF911F910F91FF90EF90DF90CF90BF9029
:100CF000AF909F908F907F906F905F904F903F90BC
:100D00002F900895CF93DF93CDB7DEB72A970FB614
:100D1000F894DEBF0FBECDBF0E9465010E94A901FD
:100D2000FE0131968AE0DF011D928A95E9F70E9463
:100D3000FB02E091FE04F091FF0481E08083E091EA
:100D4000FE04F091FF048BE28283E091FE04F091B7
:100D5000FF048CE08183E091FE04F091FF0483E0C6
:100D60008483E091FE04F091FF048583E091FE040A
:100D7000F091FF048EE08683E091FE04F091FF0481
:100D800080EA87838091FE049091FF040E945C04B6
:100D900084E091E00E9455058091FE049091FF044B
:100DA0000E94510566E086E00E94A802E091FE04E0
:100DB000F091FF0481814AE0BE016F5F7F4F90E0B8
:100DC0000E94330761E00E94950261E080E091E0BB
:100DD0000E949502E091FE04F091FF0482814AE0B6
:100DE000BE016F5F7F4F90E00E94330761E00E9479
:100DF000950261E080E091E00E949502E091FE049E
:100E0000F091FF0480818A3028F461E082E091E073
:100E10000E949502E091FE04F091FF0480814AE077
:100E2000BE016F5F7F4F90E00E94330761E00E9438
:100E300095020E94AD020E94A901BFEF20E782E067
:100E4000B15020408040E1F700C00000A1CF991BC5
:100E500079E004C0991F961708F0961B881F7A95B1
:100E6000C9F780950895BB274A3031F4992322F4BD
:100E7000BDE2909581959F4F0C943F07BB27FB01E6
:100E80005527AA27880F991FAA1FA41710F0A41B83
:100E900083955051B9F7A05DAA3308F0A95DA193DD
:100EA000009779F7B111B1931192CB010C945807C7
:100EB000DC01FC01672F71917723E1F7329704C0C1
:100EC0007C916D9370836291AE17BF07C8F308954C
:040ED000F894FFCFC4
:100ED4003A00300000000000000000030C63000032
:100EE40000000000000180021EF7BF7EFBEFBF0080
:100EF40000E000000000000000100F9C1000000043
:100F04000000011E1806100000000000010230035A
:100F1400100000000000010020011000000000008B
:100F2400000020010000000000000100200110006A
:100F34000000000001006001100000000000010E2C
:100F440060011000000000000118300110000000D2
:100F540000000000180200000000000001000C0660
:100F64001000000000000100061C1000000000003A
:100F7400010061F01000000000000100C00017BD76
:100F8400EF7DF7DF7D01800000000000000000001D
:100F94000400000000000000000004300000000015
:100FA4000000000004100000C00000400000001019
:100FB400001FF00000E00000000000221E0000B04E
:100FC4000000000003E012000118000000000640C9
:100FD4000200030C0007F8000C0006000E060004D3
:100FE400CC0008000C001803001C07800E0004004D
:100FF4003001C06404C003871800E0787C400040DE
:1010040000FDF01F80CC064800C00000001C410415
:1010140018798F8000000000418C100798000000B0
:10102400000060F81000E000000000002000200034
:1010340000000000000020FC200000000000000070
:101044002084200000000000000020842000000014
:101054000000000021946000000000000000211442
:101064004000000000000000211C400000000000BF
:10107400000021844000000000000FFFFE7FFF00FD
:1010840000000003F80003C001FFF800FFFC0000AB
:10109400000000000FF88000000000000000000FB6
:1010A400000000000000000000000000000000003C
:1010B400000000000F00000000000000000000001D
:0C10C40000000000000000000000000020
:00000001FF
