S014000046696E616C50726F6A6563742E737265634F
S11300000C9424010C9441010C9441010C94410181
S11300100C9441010C9441010C9441010C94410154
S11300200C9441010C9441010C9441010C94410144
S11300300C9441010C9441010C9441010C94410134
S11300400C9441010C9441010C9441010C94410124
S11300500C9441010C9441010C9441010C94410114
S11300600C9441010C944101000000000000005F69
S113007000000007000700147F147F14242A7F2A3D
S11300801223130864623649552250000503000008
S1130090001C2241000041221C0014083E081408E0
S11300A0083E0808005030000008080808080060EE
S11300B060000020100804023E5149453E00427F82
S11300C0400042615149462141454B311814127F89
S11300D01027454545393C4A494930017109050312
S11300E03649494936064949291E0036360000007A
S11300F0563600000814224100141414141400414C
S11301002214080201510906324979413E7E111137
S1130110117E7F494949363E414141227F41412276
S11301201C7F494949417F090909013E4149497AEE
S11301307F0808087F00417F41002040413F017F44
S1130140081422417F404040407F020C027F7F041C
S113015008107F3E4141413E7F090909063E415155
S1130160215E7F09192946464949493101017F0128
S1130170013F4040403F1F2040201F3F4038403F48
S11301806314081463070870080761514945430064
S11301907F41410002040810200041417F00040215
S11301A00102044040404040000102040020545435
S11301B054787F48444438384444442038444448BC
S11301C07F3854545418087E0901020C5252523E8E
S11301D07F0804047800447D40002040443D007FB3
S11301E01028440000417F40007C041804787C08F7
S11301F004047838444444387C141414080814144F
S1130200187C7C080404084854545420043F444097
S1130210203C4040207C1C2040201C3C4030403C82
S113022044281028440C5050503C4464544C44001E
S11302300836410000007F00000041360800100825
S1130240081008000000000011241FBECFEFD8E002
S1130250DEBFCDBF12E0A0E0B1E0EEE0F8E002C006
S113026005900D92A83FB107D9F724E0A8EFB2E0BA
S113027001C01D92A23FB207E1F70E94C2020C9492
S113028005040C9400002998662311F02B9A15C0DC
S11302902B9813C0AC01022E02C0559547950A94C1
S11302A0E2F740FF02C02C9A01C02C982D9A2D9899
S11302B02150310978F7299A089527E030E090E039
S11302C0E9CF60E00E9443010895CF93DF93219A20
S11302D0229A239A249A259A2A9A299A8FE39CE9A6
S11302E00197F1F700C000002A989FEF2AE683E007
S11302F0915020408040E1F700C000002A9A2998DC
S113030081E20E94610183E10E94610186E00E9412
S1130310610182EC0E94610180E20E94610189E036
S11303200E94610180E80E94610180E40E946101F1
S1130330C8EFD1E061E080E00E9443012197D1F74A
S113034088E00E9461018CE00E946101DF91CF91FD
S1130350089580E80E94610180E40E946101109286
S1130360F0041092F104E8EFF2E080EF94E01192CF
S1130370E817F907E1F70895262F2695269526957F
S113038090E034E5239F800D911D1124442379F0DE
S1130390FC01E850FD4F677081E090E002C0880FD7
S11303A0991F6A95E2F79081892B80830895FC0157
S11303B0E850FD4F677081E090E002C0880F991FFC
S11303C06A95E2F7809590818923808308955F92EE
S11303D06F927F928F929F92AF92BF92CF92DF9251
S11303E0EF92FF920F931F93CF93DF93562E262FF6
S11303F030E04901880C991C880C991C820E931ECC
S1130400181419040CF05DC08901000F111F000FAE
S1130410111F000F111F021B130B612CA82EB12CEE
S1130420C50180975C01AA0CBB1CAA0CBB1CA80EBE
S1130430B91E0F2EF1EFCF2EF4E0DF2EF02D0F2E8C
S1130440F0EFEF2EF4E0FF2EF02D2DC0FE012491ED
S113045030E0872D652D0E94B90302C0359527959C
S11304608A95E2F720FF0AC0F6016081670DF70163
S1130470808141E0860D0E94BC0109C0F6016081C3
S1130480670DF701808140E0860D0E94BC017394E2
S1130490872D90E080179107CCF26394862D90E02D
S11304A08815990574F410161106BCF7862D652D70
S11304B00E94B903E501C80FD11DC859DF4F712C43
S11304C0C5CF8091F00491E0980F852D880F880F97
S11304D0850D890F843518F48093F0040EC01092B2
S11304E0F004E1EFF4E0808191E0980F852D880F0E
S11304F0880F880F8519890F80838091F1048033D8
S113050020F01092F0041092F104DF91CF911F912A
S11305100F91FF90EF90DF90CF90BF90AF909F909E
S11305208F907F906F905F9008951F93CF93DF9388
S1130530EC018881882341F0162F2196612F0E94B7
S1130540E70189918111FACFDF91CF911F9108952D
S11305500F931F93CF93DF9380E80E94610180E49F
S11305600E946101C8EFD2E000EF14E061E08991DC
S11305700E944301C017D107C9F7DF91CF911F91A2
S11305800F910895CF93DF93CDB7DEB72C970FB6B5
S1130590F894DEBF0FBECDBF0E9465010E94A90181
S11305A04AE050E0BE016F5F7F4F8FE090E00E9411
S11305B0C50361E00E9495021B8221E030E03C8784
S11305C02B8718861F8280E090E09FC0E985FA851A
S11305D0D190FA87E987DD202CF441E06B818E818C
S11305E00E94BC01D6FE05C041E06B81882D0E94AB
S11305F0BC01D5FE05C041E06B81822D0E94BC0187
S1130600D4FE07C041E06B81842D0E94BC01C80167
S113061001C0C8018435910509F4A3C0D3FE05C007
S113062041E06B81802F0E94BC01D2FE05C041E0F5
S11306306B81862D0E94BC01D1FE05C041E06B8117
S11306408C810E94BC01D0FE07C041E06B818A2DE1
S11306500E94BC01C70101C0C7018435910509F49A
S113066080C02F8138852F5F3F4F38872F8338E034
S1130670E30EF11C48E0A40EB11CEC81FD81389618
S1130680FD83EC83F8E06F0E711C085F1F4F28E0B8
S1130690420E511C38E0230E311C48E0840E911C9C
S11306A05E81585F5E83803591050CF48FCF80E0C6
S11306B090E021C041E06B8580E00E94BC0112FF04
S11306C005C041E06B8581E00E94BC0111FF05C0BB
S11306D041E06B8582E00E94BC0110FF05C041E04F
S11306E06B8583E00E94BC018F8198850196988771
S11306F08F8384E090E0EB85FC853196FC87EB8763
S1130700FB81FF5FFB83F03349F12F813885205053
S11307103F4F3A872987282F392F790148E0E40E83
S1130720F11C590157E0A50EB11CF9013696FD8361
S1130730EC833901F5E06F0E711C89010C5F1F4FCA
S1130740290143E0440E511C190152E0250E311CCD
S113075049019FEF891A990A8E8338CF0E94A80213
S1130760FFCFEF81F885E050FF4F108113FFA7CF33
S1130770A1CF991B79E004C0991F961708F0961B26
S1130780881F7A95C9F7809508954532510520F45C
S1130790423010F00C94D003FB011082CB01089579
S11307A0BB274A3031F4992322F4BDE29095819518
S11307B09F4F0C94DC03BB27FB015527AA27880F06
S11307C0991FAA1FA41710F0A41B83955051B9F7C1
S11307D0A05DAA3308F0A95DA193009779F7B11140
S11307E0B1931192CB010C94F503DC01FC01672F4A
S11307F071917723E1F7329704C07C916D937083F4
S11108006291AE17BF07C8F30895F894FFCFB6
S113080E1FBF007E0007DDFFFFFF1FBF007E00033A
S113081EFFFFFFFF0FBF003F0803FFFFFFFF0FBFE8
S113082E803F0C01FBFFFFFF0FFF003F9C00FFFF0B
S113083EFFFF0FDF001F9E00FEFFFFDF0FDF001F15
S113084EDE007FFFBFEF0FFE001FEF007FFFDFF71D
S113085E0FFE000FEF803FBFFFFB0FFE000FF78070
S113086E1FFFFFFD0FFC200FFFC01FFFFFFE07FC45
S113087E0007FFC00FFFFFFF07FC0007FFE007FFA5
S113088EFFFF07F81003FFE007FFFFFF07F8100351
S113089EFFF003FFFFFF07F80003FFF003FFFFFF66
S11308AE07F80001FFF801FFFFFF07FC0801FFFC3A
S11308BE00FFFFFF07FC0800FFFC00FFFFFF07FC23
S11308CE0000FFFE007FFFFF03FE0400FFFE003F5B
S11308DEFFFF03FF0C007FFF003FFFFF03FFFC0041
S11308EE7FFF001FFFFF03FFFE007FFF801FFFFF40
S11308FE03FFFE003FFF800FFFFF03FFFE003FFFDD
S113090E8007FFFF03FFFE001FFF8007FFFF01FFAD
S113091EFE001FFF8003FF3F01FFFE001FFF800349
S113092EFF1F01FFFE000FFF0001FE1F01FFFE006F
S113093E0FFF0000FE0F01FFFE000FFF0000FE0779
S113094E01FFFF0007FF80007E0001FFFF0007FF8D
S113095E8000020001FFFF0003F80000000000FF0A
S113096EFE000060000000000003FC000000000018
S113097E000000001C0000000000000000001C002D
S113098E00000000000000000C0000000000000049
S113099E00000C0000000000000000000C0000002D
S11309AE0000000000000400000000000000000031
S11309BE040000000000000000000600000000001B
S11309CE0000000002000000000000000000020011
S11309DE0000000000000000020000000000000003
S11309EE0F000000000000000000000000000000E6
S10B09FE0000000000000000ED
S9030000FC
