S00F000044415F30345F312E737265633D
S11300000C9434000C943E000C943E000C943E007E
S11300100C943E000C943E000C943E000C943E0064
S11300200C943E000C943E000C943E000C943E0054
S11300300C943E000C943E000C943E000C943E0044
S11300400C943E000C943E000C943E000C943E0034
S11300500C943E000C943E000C943E000C943E0024
S11300600C943E000C943E0011241FBECFEFD8E048
S1130070DEBFCDBF0E9440000C94E3010C9400004D
S11300808FEF84B98AB917B881E080937E0010920B
S11300907C0097E890937A0010927B0093EA94BDD9
S11300A085BD82EA809380008AE1809381008FE19C
S11300B09EE49093870080938600CAE7D0E008E727
S11300C010E06894992494F8AA24AA946894BB2410
S11300D0B5F80F2EF8E7CF2EF5E0DF2EF02D0F2E1A
S11300E0FAE8EF2EF12CF02D8881806488838881D2
S11300F084FFFDCFF8018081918120813181211518
S1130100324038F0B5B8969587959695879587BD12
S11301101CC0F8018081918195B89E5F892F992731
S11301208695A89EB001A99E700D112480E090E0F0
S11301300E9455019B01AC0160E070E08FE793E4FD
S11301400E94B9000E94260167BDF8012081318117
S11301502C9DC0012D9D900D3C9D900D1124892F47
S1130160992786958695805E9C4FF70191838083BD
S1130170BBCF5058BB27AA270E94D1000C94A901D9
S11301800E949B0138F00E94A20120F039F49F3FA5
S113019019F426F40C9498010EF4E095E7FB0C9402
S11301A09201E92F0E94BA0158F3BA176207730744
S11301B08407950720F079F4A6F50C94DC010EF47D
S11301C0E0950B2EBA2FA02D0B01B90190010C0163
S11301D0CA01A0011124FF27591B99F0593F50F47B
S11301E0503E68F11A16F040A22F232F342F4427D3
S11301F0585FF3CF469537952795A795F0405395CB
S1130200C9F77EF41F16BA0B620B730B840BBAF09A
S11302109150A1F0FF0FBB1F661F771F881FC2F705
S11302200EC0BA0F621F731F841F48F48795779519
S11302306795B795F7959E3F08F0B0CF9395880FD3
S113024008F09927EE0F9795879508950E94C201AB
S113025088F09F5798F0B92F9927B751B0F0E1F083
S1130260660F771F881F991F1AF0BA95C9F714C033
S1130270B13091F00E94DC01B1E008950C94DC01EE
S1130280672F782F8827B85F39F0B93FCCF386956C
S113029077956795B395D9F73EF4909580957095C9
S11302A061957F4F8F4F9F4F0895E89409C097FB46
S11302B03EF490958095709561957F4F8F4F9F4F39
S11302C09923A9F0F92F96E9BB279395F69587957D
S11302D077956795B795F111F8CFFAF4BB0F11F440
S11302E060FF1BC06F5F7F4F8F4F9F4F16C08823E7
S11302F011F096E911C0772321F09EE8872F762F1D
S113030005C0662371F096E8862F70E060E02AF05D
S11303109A95660F771F881FDAF7880F9695879549
S113032097F9089597F99F6780E870E060E0089571
S11303309FEF80EC089500240A94161617061806F9
S11303400906089500240A941216130614060506D5
S11303500895092E0394000C11F4882352F0BB0F66
S113036040F4BF2B11F460FF04C06F5F7F4F8F4FC9
S11303709F4F089557FD9058440F551F59F05F3F04
S113038071F04795880F97FB991F61F09F3F79F0B3
S113039087950895121613061406551FF2CF469535
S11303A0F1DF08C0161617061806991FF1CF8695B7
S11303B07105610508940895E894BB27662777279B
S10D03C0CB0197F90895F894FFCFDC
S9030000FC
