:100000000C9434000C943E000C943E000C943E0082
:100010000C943E000C943E000C943E000C943E0068
:100020000C943E000C943E000C943E000C943E0058
:100030000C943E000C943E000C943E000C943E0048
:100040000C943E000C943E000C943E000C943E0038
:100050000C943E000C943E000C943E000C943E0028
:100060000C943E000C943E0011241FBECFEFD8E04C
:10007000DEBFCDBF0E945D000C94D9010C9400003E
:100080001092C50083E38093C400E1ECF0E080812E
:1000900088618083E2ECF0E080818660808308954F
:1000A000805D8093C6002FEF81EE94E02150804068
:1000B0009040E1F700C00000089517B881E08093F8
:1000C0007E0010927C0087E880937A0010927B007B
:1000D0000E944000CAE7D0E00F2EF8E7EF2EF12C87
:1000E000F02D06EC10E00F2EF6E5CF2EF02D6894E3
:1000F000DD24D5F8888180648883888184FFFDCFE2
:10010000F7016081718180E090E00E94DE0020E0D4
:1001100030E040E85AE30E94440120E030E040EA49
:1001200050E40E9444010E94AF00CB010E945000A5
:10013000F801C082FFEF21EE84E0F15020408040C2
:10014000E1F700C00000F801D082FFEF21EE84E06B
:10015000F15020408040E1F700C00000CBCF0E946A
:10016000230188F09F5798F0B92F9927B751B0F025
:10017000E1F0660F771F881F991F1AF0BA95C9F72B
:1001800014C0B13091F00E943D01B1E008950C948B
:100190003D01672F782F8827B85F39F0B93FCCF33E
:1001A000869577956795B395D9F73EF490958095A8
:1001B000709561957F4F8F4F9F4F0895E89409C0C8
:1001C00097FB3EF490958095709561957F4F8F4F8A
:1001D0009F4F9923A9F0F92F96E9BB279395F695A0
:1001E000879577956795B795F111F8CFFAF4BB0F1E
:1001F00011F460FF1BC06F5F7F4F8F4F9F4F16C082
:10020000882311F096E911C0772321F09EE8872F0B
:10021000762F05C0662371F096E8862F70E060E0C7
:100220002AF09A95660F771F881FDAF7880F969540
:10023000879597F9089557FD9058440F551F59F029
:100240005F3F71F04795880F97FB991F61F09F3FC3
:1002500079F087950895121613061406551FF2CFEC
:100260004695F1DF08C0161617061806991FF1CF3C
:1002700086957105610508940895E894BB27662763
:100280007727CB0197F908950E9457010C94C80174
:100290000E94BA0138F00E94C10120F0952311F0AC
:1002A0000C94B1010C94B70111240C943E010E94EE
:1002B0001B0170F3959FC1F3950F50E0551F629F8E
:1002C000F001729FBB27F00DB11D639FAA27F00DAF
:1002D000B11DAA1F649F6627B00DA11D661F829FD6
:1002E0002227B00DA11D621F739FB00DA11D621FBB
:1002F000839FA00D611D221F749F3327A00D611DD8
:10030000231F849F600D211D822F762F6A2F1124B9
:100310009F5750409AF0F1F088234AF0EE0FFF1FEC
:10032000BB1F661F771F881F91505040A9F79E3F43
:10033000510580F00C94B1010C943E015F3FE4F351
:10034000983ED4F3869577956795B795F795E79599
:100350009F5FC1F7FE2B880F911D9695879597F9A2
:10036000089597F99F6780E870E060E008959FEF37
:1003700080EC089500240A9416161706180609063C
:10038000089500240A94121613061406050608950B
:10039000092E0394000C11F4882352F0BB0F40F493
:1003A000BF2B11F460FF04C06F5F7F4F8F4F9F4FD3
:0603B0000895F894FFCF50
:00000001FF
