S00F000044415F30325F342E737265633C
S11300000C9434000C9446000C9446000C94460066
S11300100C9446000C9446000C9446000C94460044
S11300200C9446000C9446000C9446000C94460034
S11300300C9446000C9446000C9446000C94460024
S11300400C9448000C9446000C9446000C94460012
S11300500C9446000C9446000C9446000C94460004
S11300600C9446000C94460011241FBECFEFD8E038
S1130070DEBFCDBF21E0A0E0B1E001C01D92A830F9
S1130080B207E1F70E94AD000C94BF000C9400008D
S11300901F920F920FB60F9211248F939F9380910A
S11300A00601909107014E9709F047C098B181E08D
S11300B0892788B91092070110920601409946C019
S11300C0809104019091050101969093050180931C
S11300D00401809104019091050185B98091020188
S11300E09091030101969093030180930201809102
S11300F00001909101010196909301018093000108
S11301008091020190910301059741F4109203013B
S11301101092020198B180E2892788B98091000188
S1130120909101010A9791F410920101109200013B
S113013098B180E2892788B909C08091060190911D
S11301400701019690930701809306019F918F9177
S11301500F900FBE0F901F9018958FEF84B915B8AC
S113016081E687B918B814BC85B5846085BD16BC12
S1130170EEE6F0E08081816080837894FFCFF8948C
S1050180FFCFAB
S9030000FC
